{
  "_format": "hh-sol-artifact-1",
  "contractName": "SupplyChain",
  "sourceName": "contracts/SupplyChain.sol",
  "abi": [
    {
      "anonymous": false,
      "inputs": [
        {
          "indexed": false,
          "internalType": "uint256",
          "name": "productId",
          "type": "uint256"
        },
        {
          "indexed": false,
          "internalType": "string",
          "name": "name",
          "type": "string"
        },
        {
          "indexed": false,
          "internalType": "string",
          "name": "location",
          "type": "string"
        },
        {
          "indexed": false,
          "internalType": "address",
          "name": "manufacturer",
          "type": "address"
        }
      ],
      "name": "ProductRegistered",
      "type": "event"
    },
    {
      "inputs": [],
      "name": "productCount",
      "outputs": [
        {
          "internalType": "uint256",
          "name": "",
          "type": "uint256"
        }
      ],
      "stateMutability": "view",
      "type": "function"
    },
    {
      "inputs": [
        {
          "internalType": "uint256",
          "name": "",
          "type": "uint256"
        }
      ],
      "name": "products",
      "outputs": [
        {
          "internalType": "string",
          "name": "name",
          "type": "string"
        },
        {
          "internalType": "string",
          "name": "location",
          "type": "string"
        },
        {
          "internalType": "address",
          "name": "manufacturer",
          "type": "address"
        }
      ],
      "stateMutability": "view",
      "type": "function"
    },
    {
      "inputs": [
        {
          "internalType": "string",
          "name": "name",
          "type": "string"
        },
        {
          "internalType": "string",
          "name": "location",
          "type": "string"
        }
      ],
      "name": "registerProduct",
      "outputs": [],
      "stateMutability": "nonpayable",
      "type": "function"
    },
    {
      "inputs": [
        {
          "internalType": "uint256",
          "name": "productId",
          "type": "uint256"
        }
      ],
      "name": "traceProduct",
      "outputs": [
        {
          "internalType": "string",
          "name": "name",
          "type": "string"
        },
        {
          "internalType": "string",
          "name": "location",
          "type": "string"
        },
        {
          "internalType": "address",
          "name": "manufacturer",
          "type": "address"
        }
      ],
      "stateMutability": "view",
      "type": "function"
    }
  ],
  "bytecode": "0x608060405234801561001057600080fd5b50610a4f806100206000396000f3fe608060405234801561001057600080fd5b506004361061004c5760003560e01c80637acc0b20146100515780638fbd0dcf14610083578063d2136c491461009f578063e0f6ef87146100d1575b600080fd5b61006b600480360381019061006691906106bb565b6100ef565b60405161007a9392919061073b565b60405180910390f35b61009d6004803603810190610098919061064f565b610249565b005b6100b960048036038101906100b491906106bb565b61036d565b6040516100c89392919061073b565b60405180910390f35b6100d9610529565b6040516100e69190610780565b60405180910390f35b6000602052806000526040600020600091509050806000018054610112906108e9565b80601f016020809104026020016040519081016040528092919081815260200182805461013e906108e9565b801561018b5780601f106101605761010080835404028352916020019161018b565b820191906000526020600020905b81548152906001019060200180831161016e57829003601f168201915b5050505050908060010180546101a0906108e9565b80601f01602080910402602001604051908101604052809291908181526020018280546101cc906108e9565b80156102195780601f106101ee57610100808354040283529160200191610219565b820191906000526020600020905b8154815290600101906020018083116101fc57829003601f168201915b5050505050908060020160009054906101000a900473ffffffffffffffffffffffffffffffffffffffff16905083565b6001600081548092919061025c9061091b565b919050555060405180606001604052808381526020018281526020013373ffffffffffffffffffffffffffffffffffffffff16815250600080600154815260200190815260200160002060008201518160000190805190602001906102c292919061052f565b5060208201518160010190805190602001906102df92919061052f565b5060408201518160020160006101000a81548173ffffffffffffffffffffffffffffffffffffffff021916908373ffffffffffffffffffffffffffffffffffffffff1602179055509050507f9c6f3080993917af3ab38b7e74759890e4a9907d04850fcd47b5ba128e790ac0600154838333604051610361949392919061079b565b60405180910390a15050565b6060806000806000808681526020019081526020016000206040518060600160405290816000820180546103a0906108e9565b80601f01602080910402602001604051908101604052809291908181526020018280546103cc906108e9565b80156104195780601f106103ee57610100808354040283529160200191610419565b820191906000526020600020905b8154815290600101906020018083116103fc57829003601f168201915b50505050508152602001600182018054610432906108e9565b80601f016020809104026020016040519081016040528092919081815260200182805461045e906108e9565b80156104ab5780601f10610480576101008083540402835291602001916104ab565b820191906000526020600020905b81548152906001019060200180831161048e57829003601f168201915b505050505081526020016002820160009054906101000a900473ffffffffffffffffffffffffffffffffffffffff1673ffffffffffffffffffffffffffffffffffffffff1673ffffffffffffffffffffffffffffffffffffffff16815250509050806000015181602001518260400151935093509350509193909250565b60015481565b82805461053b906108e9565b90600052602060002090601f01602090048101928261055d57600085556105a4565b82601f1061057657805160ff19168380011785556105a4565b828001600101855582156105a4579182015b828111156105a3578251825591602001919060010190610588565b5b5090506105b191906105b5565b5090565b5b808211156105ce5760008160009055506001016105b6565b5090565b60006105e56105e08461081f565b6107ee565b9050828152602081018484840111156105fd57600080fd5b6106088482856108a7565b509392505050565b600082601f83011261062157600080fd5b81356106318482602086016105d2565b91505092915050565b60008135905061064981610a02565b92915050565b6000806040838503121561066257600080fd5b600083013567ffffffffffffffff81111561067c57600080fd5b61068885828601610610565b925050602083013567ffffffffffffffff8111156106a557600080fd5b6106b185828601610610565b9150509250929050565b6000602082840312156106cd57600080fd5b60006106db8482850161063a565b91505092915050565b6106ed8161086b565b82525050565b60006106fe8261084f565b610708818561085a565b93506107188185602086016108b6565b610721816109f1565b840191505092915050565b6107358161089d565b82525050565b6000606082019050818103600083015261075581866106f3565b9050818103602083015261076981856106f3565b905061077860408301846106e4565b949350505050565b6000602082019050610795600083018461072c565b92915050565b60006080820190506107b0600083018761072c565b81810360208301526107c281866106f3565b905081810360408301526107d681856106f3565b90506107e560608301846106e4565b95945050505050565b6000604051905081810181811067ffffffffffffffff82111715610815576108146109c2565b5b8060405250919050565b600067ffffffffffffffff82111561083a576108396109c2565b5b601f19601f8301169050602081019050919050565b600081519050919050565b600082825260208201905092915050565b60006108768261087d565b9050919050565b600073ffffffffffffffffffffffffffffffffffffffff82169050919050565b6000819050919050565b82818337600083830152505050565b60005b838110156108d45780820151818401526020810190506108b9565b838111156108e3576000848401525b50505050565b6000600282049050600182168061090157607f821691505b6020821081141561091557610914610993565b5b50919050565b60006109268261089d565b91507fffffffffffffffffffffffffffffffffffffffffffffffffffffffffffffffff82141561095957610958610964565b5b600182019050919050565b7f4e487b7100000000000000000000000000000000000000000000000000000000600052601160045260246000fd5b7f4e487b7100000000000000000000000000000000000000000000000000000000600052602260045260246000fd5b7f4e487b7100000000000000000000000000000000000000000000000000000000600052604160045260246000fd5b6000601f19601f8301169050919050565b610a0b8161089d565b8114610a1657600080fd5b5056fea26469706673582212208a19260bc9fb407ac1f779b240edee15eea5d2acd897b97ac67b40ecd5fc464964736f6c63430008000033",
  "linkReferences": {},
  "deployedLinkReferences": {}
}